{
  "_format": "hh-sol-artifact-1",
  "contractName": "CafecitoToken",
  "sourceName": "contracts/CafecitoToken.sol",
  "abi": [
    {
      "inputs": [],
      "stateMutability": "nonpayable",
      "type": "constructor"
    },
    {
      "anonymous": false,
      "inputs": [
        {
          "indexed": true,
          "internalType": "address",
          "name": "owner",
          "type": "address"
        },
        {
          "indexed": true,
          "internalType": "address",
          "name": "approved",
          "type": "address"
        },
        {
          "indexed": true,
          "internalType": "uint256",
          "name": "tokenId",
          "type": "uint256"
        }
      ],
      "name": "Approval",
      "type": "event"
    },
    {
      "anonymous": false,
      "inputs": [
        {
          "indexed": true,
          "internalType": "address",
          "name": "owner",
          "type": "address"
        },
        {
          "indexed": true,
          "internalType": "address",
          "name": "operator",
          "type": "address"
        },
        {
          "indexed": false,
          "internalType": "bool",
          "name": "approved",
          "type": "bool"
        }
      ],
      "name": "ApprovalForAll",
      "type": "event"
    },
    {
      "anonymous": false,
      "inputs": [
        {
          "indexed": false,
          "internalType": "uint256",
          "name": "tokenId",
          "type": "uint256"
        }
      ],
      "name": "Burn",
      "type": "event"
    },
    {
      "anonymous": false,
      "inputs": [
        {
          "indexed": false,
          "internalType": "address",
          "name": "to",
          "type": "address"
        },
        {
          "indexed": false,
          "internalType": "string",
          "name": "metadata",
          "type": "string"
        },
        {
          "indexed": false,
          "internalType": "uint256",
          "name": "tokenId",
          "type": "uint256"
        }
      ],
      "name": "Mint",
      "type": "event"
    },
    {
      "anonymous": false,
      "inputs": [
        {
          "indexed": true,
          "internalType": "bytes32",
          "name": "role",
          "type": "bytes32"
        },
        {
          "indexed": true,
          "internalType": "bytes32",
          "name": "previousAdminRole",
          "type": "bytes32"
        },
        {
          "indexed": true,
          "internalType": "bytes32",
          "name": "newAdminRole",
          "type": "bytes32"
        }
      ],
      "name": "RoleAdminChanged",
      "type": "event"
    },
    {
      "anonymous": false,
      "inputs": [
        {
          "indexed": true,
          "internalType": "bytes32",
          "name": "role",
          "type": "bytes32"
        },
        {
          "indexed": true,
          "internalType": "address",
          "name": "account",
          "type": "address"
        },
        {
          "indexed": true,
          "internalType": "address",
          "name": "sender",
          "type": "address"
        }
      ],
      "name": "RoleGranted",
      "type": "event"
    },
    {
      "anonymous": false,
      "inputs": [
        {
          "indexed": true,
          "internalType": "bytes32",
          "name": "role",
          "type": "bytes32"
        },
        {
          "indexed": true,
          "internalType": "address",
          "name": "account",
          "type": "address"
        },
        {
          "indexed": true,
          "internalType": "address",
          "name": "sender",
          "type": "address"
        }
      ],
      "name": "RoleRevoked",
      "type": "event"
    },
    {
      "anonymous": false,
      "inputs": [
        {
          "indexed": true,
          "internalType": "address",
          "name": "from",
          "type": "address"
        },
        {
          "indexed": true,
          "internalType": "address",
          "name": "to",
          "type": "address"
        },
        {
          "indexed": true,
          "internalType": "uint256",
          "name": "tokenId",
          "type": "uint256"
        }
      ],
      "name": "Transfer",
      "type": "event"
    },
    {
      "inputs": [],
      "name": "DEFAULT_ADMIN_ROLE",
      "outputs": [
        {
          "internalType": "bytes32",
          "name": "",
          "type": "bytes32"
        }
      ],
      "stateMutability": "view",
      "type": "function"
    },
    {
      "inputs": [],
      "name": "MINTER_BURNER_ROLE",
      "outputs": [
        {
          "internalType": "bytes32",
          "name": "",
          "type": "bytes32"
        }
      ],
      "stateMutability": "view",
      "type": "function"
    },
    {
      "inputs": [
        {
          "internalType": "address",
          "name": "to",
          "type": "address"
        },
        {
          "internalType": "uint256",
          "name": "tokenId",
          "type": "uint256"
        }
      ],
      "name": "approve",
      "outputs": [],
      "stateMutability": "nonpayable",
      "type": "function"
    },
    {
      "inputs": [
        {
          "internalType": "address",
          "name": "owner",
          "type": "address"
        }
      ],
      "name": "balanceOf",
      "outputs": [
        {
          "internalType": "uint256",
          "name": "",
          "type": "uint256"
        }
      ],
      "stateMutability": "view",
      "type": "function"
    },
    {
      "inputs": [
        {
          "internalType": "uint256",
          "name": "tokenId",
          "type": "uint256"
        }
      ],
      "name": "burnCafecito",
      "outputs": [],
      "stateMutability": "nonpayable",
      "type": "function"
    },
    {
      "inputs": [
        {
          "internalType": "uint256",
          "name": "tokenId",
          "type": "uint256"
        }
      ],
      "name": "getApproved",
      "outputs": [
        {
          "internalType": "address",
          "name": "",
          "type": "address"
        }
      ],
      "stateMutability": "view",
      "type": "function"
    },
    {
      "inputs": [
        {
          "internalType": "bytes32",
          "name": "role",
          "type": "bytes32"
        }
      ],
      "name": "getRoleAdmin",
      "outputs": [
        {
          "internalType": "bytes32",
          "name": "",
          "type": "bytes32"
        }
      ],
      "stateMutability": "view",
      "type": "function"
    },
    {
      "inputs": [],
      "name": "getTokenCount",
      "outputs": [
        {
          "internalType": "uint256",
          "name": "",
          "type": "uint256"
        }
      ],
      "stateMutability": "view",
      "type": "function"
    },
    {
      "inputs": [
        {
          "internalType": "bytes32",
          "name": "role",
          "type": "bytes32"
        },
        {
          "internalType": "address",
          "name": "account",
          "type": "address"
        }
      ],
      "name": "grantRole",
      "outputs": [],
      "stateMutability": "nonpayable",
      "type": "function"
    },
    {
      "inputs": [
        {
          "internalType": "bytes32",
          "name": "role",
          "type": "bytes32"
        },
        {
          "internalType": "address",
          "name": "account",
          "type": "address"
        }
      ],
      "name": "hasRole",
      "outputs": [
        {
          "internalType": "bool",
          "name": "",
          "type": "bool"
        }
      ],
      "stateMutability": "view",
      "type": "function"
    },
    {
      "inputs": [
        {
          "internalType": "address",
          "name": "owner",
          "type": "address"
        },
        {
          "internalType": "address",
          "name": "operator",
          "type": "address"
        }
      ],
      "name": "isApprovedForAll",
      "outputs": [
        {
          "internalType": "bool",
          "name": "",
          "type": "bool"
        }
      ],
      "stateMutability": "view",
      "type": "function"
    },
    {
      "inputs": [
        {
          "internalType": "address",
          "name": "user",
          "type": "address"
        },
        {
          "internalType": "string",
          "name": "_hash",
          "type": "string"
        },
        {
          "internalType": "string",
          "name": "metadata",
          "type": "string"
        }
      ],
      "name": "mintCafecito",
      "outputs": [],
      "stateMutability": "nonpayable",
      "type": "function"
    },
    {
      "inputs": [],
      "name": "name",
      "outputs": [
        {
          "internalType": "string",
          "name": "",
          "type": "string"
        }
      ],
      "stateMutability": "view",
      "type": "function"
    },
    {
      "inputs": [
        {
          "internalType": "uint256",
          "name": "tokenId",
          "type": "uint256"
        }
      ],
      "name": "ownerOf",
      "outputs": [
        {
          "internalType": "address",
          "name": "",
          "type": "address"
        }
      ],
      "stateMutability": "view",
      "type": "function"
    },
    {
      "inputs": [
        {
          "internalType": "bytes32",
          "name": "role",
          "type": "bytes32"
        },
        {
          "internalType": "address",
          "name": "account",
          "type": "address"
        }
      ],
      "name": "renounceRole",
      "outputs": [],
      "stateMutability": "nonpayable",
      "type": "function"
    },
    {
      "inputs": [
        {
          "internalType": "bytes32",
          "name": "role",
          "type": "bytes32"
        },
        {
          "internalType": "address",
          "name": "account",
          "type": "address"
        }
      ],
      "name": "revokeRole",
      "outputs": [],
      "stateMutability": "nonpayable",
      "type": "function"
    },
    {
      "inputs": [
        {
          "internalType": "address",
          "name": "from",
          "type": "address"
        },
        {
          "internalType": "address",
          "name": "to",
          "type": "address"
        },
        {
          "internalType": "uint256",
          "name": "tokenId",
          "type": "uint256"
        }
      ],
      "name": "safeTransferFrom",
      "outputs": [],
      "stateMutability": "nonpayable",
      "type": "function"
    },
    {
      "inputs": [
        {
          "internalType": "address",
          "name": "from",
          "type": "address"
        },
        {
          "internalType": "address",
          "name": "to",
          "type": "address"
        },
        {
          "internalType": "uint256",
          "name": "tokenId",
          "type": "uint256"
        },
        {
          "internalType": "bytes",
          "name": "_data",
          "type": "bytes"
        }
      ],
      "name": "safeTransferFrom",
      "outputs": [],
      "stateMutability": "nonpayable",
      "type": "function"
    },
    {
      "inputs": [
        {
          "internalType": "address",
          "name": "operator",
          "type": "address"
        },
        {
          "internalType": "bool",
          "name": "approved",
          "type": "bool"
        }
      ],
      "name": "setApprovalForAll",
      "outputs": [],
      "stateMutability": "nonpayable",
      "type": "function"
    },
    {
      "inputs": [
        {
          "internalType": "bytes4",
          "name": "interfaceId",
          "type": "bytes4"
        }
      ],
      "name": "supportsInterface",
      "outputs": [
        {
          "internalType": "bool",
          "name": "",
          "type": "bool"
        }
      ],
      "stateMutability": "view",
      "type": "function"
    },
    {
      "inputs": [],
      "name": "symbol",
      "outputs": [
        {
          "internalType": "string",
          "name": "",
          "type": "string"
        }
      ],
      "stateMutability": "view",
      "type": "function"
    },
    {
      "inputs": [
        {
          "internalType": "uint256",
          "name": "index",
          "type": "uint256"
        }
      ],
      "name": "tokenByIndex",
      "outputs": [
        {
          "internalType": "uint256",
          "name": "",
          "type": "uint256"
        }
      ],
      "stateMutability": "view",
      "type": "function"
    },
    {
      "inputs": [
        {
          "internalType": "address",
          "name": "owner",
          "type": "address"
        },
        {
          "internalType": "uint256",
          "name": "index",
          "type": "uint256"
        }
      ],
      "name": "tokenOfOwnerByIndex",
      "outputs": [
        {
          "internalType": "uint256",
          "name": "",
          "type": "uint256"
        }
      ],
      "stateMutability": "view",
      "type": "function"
    },
    {
      "inputs": [
        {
          "internalType": "uint256",
          "name": "tokenId",
          "type": "uint256"
        }
      ],
      "name": "tokenURI",
      "outputs": [
        {
          "internalType": "string",
          "name": "",
          "type": "string"
        }
      ],
      "stateMutability": "view",
      "type": "function"
    },
    {
      "inputs": [],
      "name": "totalSupply",
      "outputs": [
        {
          "internalType": "uint256",
          "name": "",
          "type": "uint256"
        }
      ],
      "stateMutability": "view",
      "type": "function"
    },
    {
      "inputs": [
        {
          "internalType": "address",
          "name": "from",
          "type": "address"
        },
        {
          "internalType": "address",
          "name": "to",
          "type": "address"
        },
        {
          "internalType": "uint256",
          "name": "tokenId",
          "type": "uint256"
        }
      ],
      "name": "transferFrom",
      "outputs": [],
      "stateMutability": "nonpayable",
      "type": "function"
    }
  ],
  "bytecode": "0x60806040523480156200001157600080fd5b506040518060400160405280600c81526020017f436166656369746f5377617000000000000000000000000000000000000000008152506040518060400160405280600481526020017f43414645000000000000000000000000000000000000000000000000000000008152508160009080519060200190620000969291906200027a565b508060019080519060200190620000af9291906200027a565b505050620000c76000801b33620000ff60201b60201c565b620000f97fcfd53186d792f1ec9d0679afc2dc3ffc86fc31fe1e0f342b838eb6c3eade62b333620000ff60201b60201c565b6200038f565b6200011182826200011560201b60201c565b5050565b6200012782826200020760201b60201c565b62000203576001600b600084815260200190815260200160002060000160008373ffffffffffffffffffffffffffffffffffffffff1673ffffffffffffffffffffffffffffffffffffffff16815260200190815260200160002060006101000a81548160ff021916908315150217905550620001a86200027260201b60201c565b73ffffffffffffffffffffffffffffffffffffffff168173ffffffffffffffffffffffffffffffffffffffff16837f2f8788117e7eff1d82e926ec794901d17c78024a50270940304540a733656f0d60405160405180910390a45b5050565b6000600b600084815260200190815260200160002060000160008373ffffffffffffffffffffffffffffffffffffffff1673ffffffffffffffffffffffffffffffffffffffff16815260200190815260200160002060009054906101000a900460ff16905092915050565b600033905090565b82805462000288906200032a565b90600052602060002090601f016020900481019282620002ac5760008555620002f8565b82601f10620002c757805160ff1916838001178555620002f8565b82800160010185558215620002f8579182015b82811115620002f7578251825591602001919060010190620002da565b5b5090506200030791906200030b565b5090565b5b80821115620003265760008160009055506001016200030c565b5090565b600060028204905060018216806200034357607f821691505b602082108114156200035a576200035962000360565b5b50919050565b7f4e487b7100000000000000000000000000000000000000000000000000000000600052602260045260246000fd5b614461806200039f6000396000f3fe608060405234801561001057600080fd5b506004361061018e5760003560e01c80636352211e116100de578063a217fddf11610097578063c87b56dd11610071578063c87b56dd146104a7578063d547741f146104d7578063d5e81d0c146104f3578063e985e9c51461050f5761018e565b8063a217fddf14610451578063a22cb4651461046f578063b88d4fde1461048b5761018e565b80636352211e1461036757806370a082311461039757806372c32860146103c757806378a89567146103e557806391d148541461040357806395d89b41146104335761018e565b80632448baac1161014b5780632f745c59116101255780632f745c59146102cf57806336568abe146102ff57806342842e0e1461031b5780634f6ccce7146103375761018e565b80632448baac14610267578063248a9ca3146102835780632f2ff15d146102b35761018e565b806301ffc9a71461019357806306fdde03146101c3578063081812fc146101e1578063095ea7b31461021157806318160ddd1461022d57806323b872dd1461024b575b600080fd5b6101ad60048036038101906101a89190612fa0565b61053f565b6040516101ba9190613568565b60405180910390f35b6101cb610551565b6040516101d8919061359e565b60405180910390f35b6101fb60048036038101906101f69190612ffa565b6105e3565b60405161020891906134c3565b60405180910390f35b61022b60048036038101906102269190612ef3565b610668565b005b610235610780565b6040516102429190613880565b60405180910390f35b61026560048036038101906102609190612d52565b61078d565b005b610281600480360381019061027c9190612ffa565b6107ed565b005b61029d60048036038101906102989190612f33565b61086d565b6040516102aa9190613583565b60405180910390f35b6102cd60048036038101906102c89190612f60565b61088d565b005b6102e960048036038101906102e49190612ef3565b6108b6565b6040516102f69190613880565b60405180910390f35b61031960048036038101906103149190612f60565b61095b565b005b61033560048036038101906103309190612d52565b6109de565b005b610351600480360381019061034c9190612ffa565b6109fe565b60405161035e9190613880565b60405180910390f35b610381600480360381019061037c9190612ffa565b610a6f565b60405161038e91906134c3565b60405180910390f35b6103b160048036038101906103ac9190612ce5565b610b21565b6040516103be9190613880565b60405180910390f35b6103cf610bd9565b6040516103dc9190613583565b60405180910390f35b6103ed610bfd565b6040516103fa9190613880565b60405180910390f35b61041d60048036038101906104189190612f60565b610c0e565b60405161042a9190613568565b60405180910390f35b61043b610c79565b604051610448919061359e565b60405180910390f35b610459610d0b565b6040516104669190613583565b60405180910390f35b61048960048036038101906104849190612e28565b610d12565b005b6104a560048036038101906104a09190612da5565b610d28565b005b6104c160048036038101906104bc9190612ffa565b610d8a565b6040516104ce919061359e565b60405180910390f35b6104f160048036038101906104ec9190612f60565b610d9c565b005b61050d60048036038101906105089190612e68565b610dc5565b005b61052960048036038101906105249190612d12565b610f0f565b6040516105369190613568565b60405180910390f35b600061054a82610fa3565b9050919050565b60606000805461056090613b64565b80601f016020809104026020016040519081016040528092919081815260200182805461058c90613b64565b80156105d95780601f106105ae576101008083540402835291602001916105d9565b820191906000526020600020905b8154815290600101906020018083116105bc57829003601f168201915b5050505050905090565b60006105ee8261101d565b61062d576040517f08c379a0000000000000000000000000000000000000000000000000000000008152600401610624906137a0565b60405180910390fd5b6004600083815260200190815260200160002060009054906101000a900473ffffffffffffffffffffffffffffffffffffffff169050919050565b600061067382610a6f565b90508073ffffffffffffffffffffffffffffffffffffffff168373ffffffffffffffffffffffffffffffffffffffff1614156106e4576040517f08c379a00000000000000000000000000000000000000000000000000000000081526004016106db90613800565b60405180910390fd5b8073ffffffffffffffffffffffffffffffffffffffff16610703611089565b73ffffffffffffffffffffffffffffffffffffffff16148061073257506107318161072c611089565b610f0f565b5b610771576040517f08c379a0000000000000000000000000000000000000000000000000000000008152600401610768906136e0565b60405180910390fd5b61077b8383611091565b505050565b6000600880549050905090565b61079e610798611089565b8261114a565b6107dd576040517f08c379a00000000000000000000000000000000000000000000000000000000081526004016107d490613820565b60405180910390fd5b6107e8838383611228565b505050565b7fcfd53186d792f1ec9d0679afc2dc3ffc86fc31fe1e0f342b838eb6c3eade62b361081f8161081a611089565b611484565b61082882611521565b610832600c61152d565b7fb90306ad06b2a6ff86ddc9327db583062895ef6540e62dc50add009db5b356eb826040516108619190613880565b60405180910390a15050565b6000600b6000838152602001908152602001600020600101549050919050565b6108968261086d565b6108a7816108a2611089565b611484565b6108b18383611589565b505050565b60006108c183610b21565b8210610902576040517f08c379a00000000000000000000000000000000000000000000000000000000081526004016108f9906135e0565b60405180910390fd5b600660008473ffffffffffffffffffffffffffffffffffffffff1673ffffffffffffffffffffffffffffffffffffffff168152602001908152602001600020600083815260200190815260200160002054905092915050565b610963611089565b73ffffffffffffffffffffffffffffffffffffffff168173ffffffffffffffffffffffffffffffffffffffff16146109d0576040517f08c379a00000000000000000000000000000000000000000000000000000000081526004016109c790613860565b60405180910390fd5b6109da828261166a565b5050565b6109f983838360405180602001604052806000815250610d28565b505050565b6000610a08610780565b8210610a49576040517f08c379a0000000000000000000000000000000000000000000000000000000008152600401610a4090613840565b60405180910390fd5b60088281548110610a5d57610a5c613cfd565b5b90600052602060002001549050919050565b6000806002600084815260200190815260200160002060009054906101000a900473ffffffffffffffffffffffffffffffffffffffff169050600073ffffffffffffffffffffffffffffffffffffffff168173ffffffffffffffffffffffffffffffffffffffff161415610b18576040517f08c379a0000000000000000000000000000000000000000000000000000000008152600401610b0f90613720565b60405180910390fd5b80915050919050565b60008073ffffffffffffffffffffffffffffffffffffffff168273ffffffffffffffffffffffffffffffffffffffff161415610b92576040517f08c379a0000000000000000000000000000000000000000000000000000000008152600401610b8990613700565b60405180910390fd5b600360008373ffffffffffffffffffffffffffffffffffffffff1673ffffffffffffffffffffffffffffffffffffffff168152602001908152602001600020549050919050565b7fcfd53186d792f1ec9d0679afc2dc3ffc86fc31fe1e0f342b838eb6c3eade62b381565b6000610c09600c61174c565b905090565b6000600b600084815260200190815260200160002060000160008373ffffffffffffffffffffffffffffffffffffffff1673ffffffffffffffffffffffffffffffffffffffff16815260200190815260200160002060009054906101000a900460ff16905092915050565b606060018054610c8890613b64565b80601f0160208091040260200160405190810160405280929190818152602001828054610cb490613b64565b8015610d015780601f10610cd657610100808354040283529160200191610d01565b820191906000526020600020905b815481529060010190602001808311610ce457829003601f168201915b5050505050905090565b6000801b81565b610d24610d1d611089565b838361175a565b5050565b610d39610d33611089565b8361114a565b610d78576040517f08c379a0000000000000000000000000000000000000000000000000000000008152600401610d6f90613820565b60405180910390fd5b610d84848484846118c7565b50505050565b6060610d9582611923565b9050919050565b610da58261086d565b610db681610db1611089565b611484565b610dc0838361166a565b505050565b7fcfd53186d792f1ec9d0679afc2dc3ffc86fc31fe1e0f342b838eb6c3eade62b3610df781610df2611089565b611484565b6001600d84604051610e09919061344e565b908152602001604051809103902060009054906101000a900460ff1660ff161415610e69576040517f08c379a0000000000000000000000000000000000000000000000000000000008152600401610e60906136a0565b60405180910390fd5b6001600d84604051610e7b919061344e565b908152602001604051809103902060006101000a81548160ff021916908360ff160217905550610eab600c611a75565b6000610eb7600c61174c565b9050610ec38582611a8b565b610ecd8184611aa9565b7fec4de1eef14af3ae5d77facf1ed7a9d3d50f6285573ee0ec155fc11217fc3442858483604051610f009392919061352a565b60405180910390a15050505050565b6000600560008473ffffffffffffffffffffffffffffffffffffffff1673ffffffffffffffffffffffffffffffffffffffff16815260200190815260200160002060008373ffffffffffffffffffffffffffffffffffffffff1673ffffffffffffffffffffffffffffffffffffffff16815260200190815260200160002060009054906101000a900460ff16905092915050565b60007f7965db0b000000000000000000000000000000000000000000000000000000007bffffffffffffffffffffffffffffffffffffffffffffffffffffffff1916827bffffffffffffffffffffffffffffffffffffffffffffffffffffffff19161480611016575061101582611b1d565b5b9050919050565b60008073ffffffffffffffffffffffffffffffffffffffff166002600084815260200190815260200160002060009054906101000a900473ffffffffffffffffffffffffffffffffffffffff1673ffffffffffffffffffffffffffffffffffffffff1614159050919050565b600033905090565b816004600083815260200190815260200160002060006101000a81548173ffffffffffffffffffffffffffffffffffffffff021916908373ffffffffffffffffffffffffffffffffffffffff160217905550808273ffffffffffffffffffffffffffffffffffffffff1661110483610a6f565b73ffffffffffffffffffffffffffffffffffffffff167f8c5be1e5ebec7d5bd14f71427d1e84f3dd0314c0f7b2291e5b200ac8c7c3b92560405160405180910390a45050565b60006111558261101d565b611194576040517f08c379a000000000000000000000000000000000000000000000000000000000815260040161118b906136c0565b60405180910390fd5b600061119f83610a6f565b90508073ffffffffffffffffffffffffffffffffffffffff168473ffffffffffffffffffffffffffffffffffffffff16148061120e57508373ffffffffffffffffffffffffffffffffffffffff166111f6846105e3565b73ffffffffffffffffffffffffffffffffffffffff16145b8061121f575061121e8185610f0f565b5b91505092915050565b8273ffffffffffffffffffffffffffffffffffffffff1661124882610a6f565b73ffffffffffffffffffffffffffffffffffffffff161461129e576040517f08c379a0000000000000000000000000000000000000000000000000000000008152600401611295906137c0565b60405180910390fd5b600073ffffffffffffffffffffffffffffffffffffffff168273ffffffffffffffffffffffffffffffffffffffff16141561130e576040517f08c379a000000000000000000000000000000000000000000000000000000000815260040161130590613660565b60405180910390fd5b611319838383611b97565b611324600082611091565b6001600360008573ffffffffffffffffffffffffffffffffffffffff1673ffffffffffffffffffffffffffffffffffffffff16815260200190815260200160002060008282546113749190613a46565b925050819055506001600360008473ffffffffffffffffffffffffffffffffffffffff1673ffffffffffffffffffffffffffffffffffffffff16815260200190815260200160002060008282546113cb9190613965565b92505081905550816002600083815260200190815260200160002060006101000a81548173ffffffffffffffffffffffffffffffffffffffff021916908373ffffffffffffffffffffffffffffffffffffffff160217905550808273ffffffffffffffffffffffffffffffffffffffff168473ffffffffffffffffffffffffffffffffffffffff167fddf252ad1be2c89b69c2b068fc378daa952ba7f163c4a11628f55a4df523b3ef60405160405180910390a4505050565b61148e8282610c0e565b61151d576114b38173ffffffffffffffffffffffffffffffffffffffff166014611ba7565b6114c18360001c6020611ba7565b6040516020016114d2929190613489565b6040516020818303038152906040526040517f08c379a0000000000000000000000000000000000000000000000000000000008152600401611514919061359e565b60405180910390fd5b5050565b61152a81611de3565b50565b60008160000154905060008111611579576040517f08c379a000000000000000000000000000000000000000000000000000000000815260040161157090613600565b60405180910390fd5b6001810382600001819055505050565b6115938282610c0e565b611666576001600b600084815260200190815260200160002060000160008373ffffffffffffffffffffffffffffffffffffffff1673ffffffffffffffffffffffffffffffffffffffff16815260200190815260200160002060006101000a81548160ff02191690831515021790555061160b611089565b73ffffffffffffffffffffffffffffffffffffffff168173ffffffffffffffffffffffffffffffffffffffff16837f2f8788117e7eff1d82e926ec794901d17c78024a50270940304540a733656f0d60405160405180910390a45b5050565b6116748282610c0e565b15611748576000600b600084815260200190815260200160002060000160008373ffffffffffffffffffffffffffffffffffffffff1673ffffffffffffffffffffffffffffffffffffffff16815260200190815260200160002060006101000a81548160ff0219169083151502179055506116ed611089565b73ffffffffffffffffffffffffffffffffffffffff168173ffffffffffffffffffffffffffffffffffffffff16837ff6391f5c32d9c69d2a47ea670b442974b53935d1edc7fd64eb21e047a839171b60405160405180910390a45b5050565b600081600001549050919050565b8173ffffffffffffffffffffffffffffffffffffffff168373ffffffffffffffffffffffffffffffffffffffff1614156117c9576040517f08c379a00000000000000000000000000000000000000000000000000000000081526004016117c090613680565b60405180910390fd5b80600560008573ffffffffffffffffffffffffffffffffffffffff1673ffffffffffffffffffffffffffffffffffffffff16815260200190815260200160002060008473ffffffffffffffffffffffffffffffffffffffff1673ffffffffffffffffffffffffffffffffffffffff16815260200190815260200160002060006101000a81548160ff0219169083151502179055508173ffffffffffffffffffffffffffffffffffffffff168373ffffffffffffffffffffffffffffffffffffffff167f17307eab39ab6107e8899845ad3d59bd9653f200f220920489ca2b5937696c31836040516118ba9190613568565b60405180910390a3505050565b6118d2848484611228565b6118de84848484611e36565b61191d576040517f08c379a000000000000000000000000000000000000000000000000000000000815260040161191490613620565b60405180910390fd5b50505050565b606061192e8261101d565b61196d576040517f08c379a000000000000000000000000000000000000000000000000000000000815260040161196490613780565b60405180910390fd5b6000600a6000848152602001908152602001600020805461198d90613b64565b80601f01602080910402602001604051908101604052809291908181526020018280546119b990613b64565b8015611a065780601f106119db57610100808354040283529160200191611a06565b820191906000526020600020905b8154815290600101906020018083116119e957829003601f168201915b505050505090506000611a17611fcd565b9050600081511415611a2d578192505050611a70565b600082511115611a62578082604051602001611a4a929190613465565b60405160208183030381529060405292505050611a70565b611a6b84611fe4565b925050505b919050565b6001816000016000828254019250508190555050565b611aa582826040518060200160405280600081525061208b565b5050565b611ab28261101d565b611af1576040517f08c379a0000000000000000000000000000000000000000000000000000000008152600401611ae890613740565b60405180910390fd5b80600a60008481526020019081526020016000209080519060200190611b18929190612aa4565b505050565b60007f780e9d63000000000000000000000000000000000000000000000000000000007bffffffffffffffffffffffffffffffffffffffffffffffffffffffff1916827bffffffffffffffffffffffffffffffffffffffffffffffffffffffff19161480611b905750611b8f826120e6565b5b9050919050565b611ba28383836121c8565b505050565b606060006002836002611bba91906139ec565b611bc49190613965565b67ffffffffffffffff811115611bdd57611bdc613d2c565b5b6040519080825280601f01601f191660200182016040528015611c0f5781602001600182028036833780820191505090505b5090507f300000000000000000000000000000000000000000000000000000000000000081600081518110611c4757611c46613cfd565b5b60200101907effffffffffffffffffffffffffffffffffffffffffffffffffffffffffffff1916908160001a9053507f780000000000000000000000000000000000000000000000000000000000000081600181518110611cab57611caa613cfd565b5b60200101907effffffffffffffffffffffffffffffffffffffffffffffffffffffffffffff1916908160001a90535060006001846002611ceb91906139ec565b611cf59190613965565b90505b6001811115611d95577f3031323334353637383961626364656600000000000000000000000000000000600f861660108110611d3757611d36613cfd565b5b1a60f81b828281518110611d4e57611d4d613cfd565b5b60200101907effffffffffffffffffffffffffffffffffffffffffffffffffffffffffffff1916908160001a905350600485901c945080611d8e90613b3a565b9050611cf8565b5060008414611dd9576040517f08c379a0000000000000000000000000000000000000000000000000000000008152600401611dd0906135c0565b60405180910390fd5b8091505092915050565b611dec816122dc565b6000600a60008381526020019081526020016000208054611e0c90613b64565b905014611e3357600a60008281526020019081526020016000206000611e329190612b2a565b5b50565b6000611e578473ffffffffffffffffffffffffffffffffffffffff166123ed565b15611fc0578373ffffffffffffffffffffffffffffffffffffffff1663150b7a02611e80611089565b8786866040518563ffffffff1660e01b8152600401611ea294939291906134de565b602060405180830381600087803b158015611ebc57600080fd5b505af1925050508015611eed57506040513d601f19601f82011682018060405250810190611eea9190612fcd565b60015b611f70573d8060008114611f1d576040519150601f19603f3d011682016040523d82523d6000602084013e611f22565b606091505b50600081511415611f68576040517f08c379a0000000000000000000000000000000000000000000000000000000008152600401611f5f90613620565b60405180910390fd5b805181602001fd5b63150b7a0260e01b7bffffffffffffffffffffffffffffffffffffffffffffffffffffffff1916817bffffffffffffffffffffffffffffffffffffffffffffffffffffffff191614915050611fc5565b600190505b949350505050565b606060405180602001604052806000815250905090565b6060611fef8261101d565b61202e576040517f08c379a0000000000000000000000000000000000000000000000000000000008152600401612025906137e0565b60405180910390fd5b6000612038611fcd565b905060008151116120585760405180602001604052806000815250612083565b8061206284612400565b604051602001612073929190613465565b6040516020818303038152906040525b915050919050565b6120958383612561565b6120a26000848484611e36565b6120e1576040517f08c379a00000000000000000000000000000000000000000000000000000000081526004016120d890613620565b60405180910390fd5b505050565b60007f80ac58cd000000000000000000000000000000000000000000000000000000007bffffffffffffffffffffffffffffffffffffffffffffffffffffffff1916827bffffffffffffffffffffffffffffffffffffffffffffffffffffffff191614806121b157507f5b5e139f000000000000000000000000000000000000000000000000000000007bffffffffffffffffffffffffffffffffffffffffffffffffffffffff1916827bffffffffffffffffffffffffffffffffffffffffffffffffffffffff1916145b806121c157506121c08261272f565b5b9050919050565b6121d3838383612799565b600073ffffffffffffffffffffffffffffffffffffffff168373ffffffffffffffffffffffffffffffffffffffff161415612216576122118161279e565b612255565b8173ffffffffffffffffffffffffffffffffffffffff168373ffffffffffffffffffffffffffffffffffffffff16146122545761225383826127e7565b5b5b600073ffffffffffffffffffffffffffffffffffffffff168273ffffffffffffffffffffffffffffffffffffffff1614156122985761229381612954565b6122d7565b8273ffffffffffffffffffffffffffffffffffffffff168273ffffffffffffffffffffffffffffffffffffffff16146122d6576122d58282612a25565b5b5b505050565b60006122e782610a6f565b90506122f581600084611b97565b612300600083611091565b6001600360008373ffffffffffffffffffffffffffffffffffffffff1673ffffffffffffffffffffffffffffffffffffffff16815260200190815260200160002060008282546123509190613a46565b925050819055506002600083815260200190815260200160002060006101000a81549073ffffffffffffffffffffffffffffffffffffffff021916905581600073ffffffffffffffffffffffffffffffffffffffff168273ffffffffffffffffffffffffffffffffffffffff167fddf252ad1be2c89b69c2b068fc378daa952ba7f163c4a11628f55a4df523b3ef60405160405180910390a45050565b600080823b905060008111915050919050565b60606000821415612448576040518060400160405280600181526020017f3000000000000000000000000000000000000000000000000000000000000000815250905061255c565b600082905060005b6000821461247a57808061246390613bc7565b915050600a8261247391906139bb565b9150612450565b60008167ffffffffffffffff81111561249657612495613d2c565b5b6040519080825280601f01601f1916602001820160405280156124c85781602001600182028036833780820191505090505b5090505b60008514612555576001826124e19190613a46565b9150600a856124f09190613c10565b60306124fc9190613965565b60f81b81838151811061251257612511613cfd565b5b60200101907effffffffffffffffffffffffffffffffffffffffffffffffffffffffffffff1916908160001a905350600a8561254e91906139bb565b94506124cc565b8093505050505b919050565b600073ffffffffffffffffffffffffffffffffffffffff168273ffffffffffffffffffffffffffffffffffffffff1614156125d1576040517f08c379a00000000000000000000000000000000000000000000000000000000081526004016125c890613760565b60405180910390fd5b6125da8161101d565b1561261a576040517f08c379a000000000000000000000000000000000000000000000000000000000815260040161261190613640565b60405180910390fd5b61262660008383611b97565b6001600360008473ffffffffffffffffffffffffffffffffffffffff1673ffffffffffffffffffffffffffffffffffffffff16815260200190815260200160002060008282546126769190613965565b92505081905550816002600083815260200190815260200160002060006101000a81548173ffffffffffffffffffffffffffffffffffffffff021916908373ffffffffffffffffffffffffffffffffffffffff160217905550808273ffffffffffffffffffffffffffffffffffffffff16600073ffffffffffffffffffffffffffffffffffffffff167fddf252ad1be2c89b69c2b068fc378daa952ba7f163c4a11628f55a4df523b3ef60405160405180910390a45050565b60007f01ffc9a7000000000000000000000000000000000000000000000000000000007bffffffffffffffffffffffffffffffffffffffffffffffffffffffff1916827bffffffffffffffffffffffffffffffffffffffffffffffffffffffff1916149050919050565b505050565b6008805490506009600083815260200190815260200160002081905550600881908060018154018082558091505060019003906000526020600020016000909190919091505550565b600060016127f484610b21565b6127fe9190613a46565b90506000600760008481526020019081526020016000205490508181146128e3576000600660008673ffffffffffffffffffffffffffffffffffffffff1673ffffffffffffffffffffffffffffffffffffffff168152602001908152602001600020600084815260200190815260200160002054905080600660008773ffffffffffffffffffffffffffffffffffffffff1673ffffffffffffffffffffffffffffffffffffffff168152602001908152602001600020600084815260200190815260200160002081905550816007600083815260200190815260200160002081905550505b6007600084815260200190815260200160002060009055600660008573ffffffffffffffffffffffffffffffffffffffff1673ffffffffffffffffffffffffffffffffffffffff16815260200190815260200160002060008381526020019081526020016000206000905550505050565b600060016008805490506129689190613a46565b905060006009600084815260200190815260200160002054905060006008838154811061299857612997613cfd565b5b9060005260206000200154905080600883815481106129ba576129b9613cfd565b5b906000526020600020018190555081600960008381526020019081526020016000208190555060096000858152602001908152602001600020600090556008805480612a0957612a08613cce565b5b6001900381819060005260206000200160009055905550505050565b6000612a3083610b21565b905081600660008573ffffffffffffffffffffffffffffffffffffffff1673ffffffffffffffffffffffffffffffffffffffff168152602001908152602001600020600083815260200190815260200160002081905550806007600084815260200190815260200160002081905550505050565b828054612ab090613b64565b90600052602060002090601f016020900481019282612ad25760008555612b19565b82601f10612aeb57805160ff1916838001178555612b19565b82800160010185558215612b19579182015b82811115612b18578251825591602001919060010190612afd565b5b509050612b269190612b6a565b5090565b508054612b3690613b64565b6000825580601f10612b485750612b67565b601f016020900490600052602060002090810190612b669190612b6a565b5b50565b5b80821115612b83576000816000905550600101612b6b565b5090565b6000612b9a612b95846138c0565b61389b565b905082815260208101848484011115612bb657612bb5613d60565b5b612bc1848285613af8565b509392505050565b6000612bdc612bd7846138f1565b61389b565b905082815260208101848484011115612bf857612bf7613d60565b5b612c03848285613af8565b509392505050565b600081359050612c1a816143b8565b92915050565b600081359050612c2f816143cf565b92915050565b600081359050612c44816143e6565b92915050565b600081359050612c59816143fd565b92915050565b600081519050612c6e816143fd565b92915050565b600082601f830112612c8957612c88613d5b565b5b8135612c99848260208601612b87565b91505092915050565b600082601f830112612cb757612cb6613d5b565b5b8135612cc7848260208601612bc9565b91505092915050565b600081359050612cdf81614414565b92915050565b600060208284031215612cfb57612cfa613d6a565b5b6000612d0984828501612c0b565b91505092915050565b60008060408385031215612d2957612d28613d6a565b5b6000612d3785828601612c0b565b9250506020612d4885828601612c0b565b9150509250929050565b600080600060608486031215612d6b57612d6a613d6a565b5b6000612d7986828701612c0b565b9350506020612d8a86828701612c0b565b9250506040612d9b86828701612cd0565b9150509250925092565b60008060008060808587031215612dbf57612dbe613d6a565b5b6000612dcd87828801612c0b565b9450506020612dde87828801612c0b565b9350506040612def87828801612cd0565b925050606085013567ffffffffffffffff811115612e1057612e0f613d65565b5b612e1c87828801612c74565b91505092959194509250565b60008060408385031215612e3f57612e3e613d6a565b5b6000612e4d85828601612c0b565b9250506020612e5e85828601612c20565b9150509250929050565b600080600060608486031215612e8157612e80613d6a565b5b6000612e8f86828701612c0b565b935050602084013567ffffffffffffffff811115612eb057612eaf613d65565b5b612ebc86828701612ca2565b925050604084013567ffffffffffffffff811115612edd57612edc613d65565b5b612ee986828701612ca2565b9150509250925092565b60008060408385031215612f0a57612f09613d6a565b5b6000612f1885828601612c0b565b9250506020612f2985828601612cd0565b9150509250929050565b600060208284031215612f4957612f48613d6a565b5b6000612f5784828501612c35565b91505092915050565b60008060408385031215612f7757612f76613d6a565b5b6000612f8585828601612c35565b9250506020612f9685828601612c0b565b9150509250929050565b600060208284031215612fb657612fb5613d6a565b5b6000612fc484828501612c4a565b91505092915050565b600060208284031215612fe357612fe2613d6a565b5b6000612ff184828501612c5f565b91505092915050565b6000602082840312156130105761300f613d6a565b5b600061301e84828501612cd0565b91505092915050565b61303081613a7a565b82525050565b61303f81613a8c565b82525050565b61304e81613a98565b82525050565b600061305f82613922565b6130698185613938565b9350613079818560208601613b07565b61308281613d6f565b840191505092915050565b60006130988261392d565b6130a28185613949565b93506130b2818560208601613b07565b6130bb81613d6f565b840191505092915050565b60006130d18261392d565b6130db818561395a565b93506130eb818560208601613b07565b80840191505092915050565b6000613104602083613949565b915061310f82613d80565b602082019050919050565b6000613127602b83613949565b915061313282613da9565b604082019050919050565b600061314a601b83613949565b915061315582613df8565b602082019050919050565b600061316d603283613949565b915061317882613e21565b604082019050919050565b6000613190601c83613949565b915061319b82613e70565b602082019050919050565b60006131b3602483613949565b91506131be82613e99565b604082019050919050565b60006131d6601983613949565b91506131e182613ee8565b602082019050919050565b60006131f9601383613949565b915061320482613f11565b602082019050919050565b600061321c602c83613949565b915061322782613f3a565b604082019050919050565b600061323f603883613949565b915061324a82613f89565b604082019050919050565b6000613262602a83613949565b915061326d82613fd8565b604082019050919050565b6000613285602983613949565b915061329082614027565b604082019050919050565b60006132a8602e83613949565b91506132b382614076565b604082019050919050565b60006132cb602083613949565b91506132d6826140c5565b602082019050919050565b60006132ee603183613949565b91506132f9826140ee565b604082019050919050565b6000613311602c83613949565b915061331c8261413d565b604082019050919050565b6000613334602983613949565b915061333f8261418c565b604082019050919050565b6000613357602f83613949565b9150613362826141db565b604082019050919050565b600061337a602183613949565b91506133858261422a565b604082019050919050565b600061339d603183613949565b91506133a882614279565b604082019050919050565b60006133c0602c83613949565b91506133cb826142c8565b604082019050919050565b60006133e360178361395a565b91506133ee82614317565b601782019050919050565b600061340660118361395a565b915061341182614340565b601182019050919050565b6000613429602f83613949565b915061343482614369565b604082019050919050565b61344881613aee565b82525050565b600061345a82846130c6565b915081905092915050565b600061347182856130c6565b915061347d82846130c6565b91508190509392505050565b6000613494826133d6565b91506134a082856130c6565b91506134ab826133f9565b91506134b782846130c6565b91508190509392505050565b60006020820190506134d86000830184613027565b92915050565b60006080820190506134f36000830187613027565b6135006020830186613027565b61350d604083018561343f565b818103606083015261351f8184613054565b905095945050505050565b600060608201905061353f6000830186613027565b8181036020830152613551818561308d565b9050613560604083018461343f565b949350505050565b600060208201905061357d6000830184613036565b92915050565b60006020820190506135986000830184613045565b92915050565b600060208201905081810360008301526135b8818461308d565b905092915050565b600060208201905081810360008301526135d9816130f7565b9050919050565b600060208201905081810360008301526135f98161311a565b9050919050565b600060208201905081810360008301526136198161313d565b9050919050565b6000602082019050818103600083015261363981613160565b9050919050565b6000602082019050818103600083015261365981613183565b9050919050565b60006020820190508181036000830152613679816131a6565b9050919050565b60006020820190508181036000830152613699816131c9565b9050919050565b600060208201905081810360008301526136b9816131ec565b9050919050565b600060208201905081810360008301526136d98161320f565b9050919050565b600060208201905081810360008301526136f981613232565b9050919050565b6000602082019050818103600083015261371981613255565b9050919050565b6000602082019050818103600083015261373981613278565b9050919050565b600060208201905081810360008301526137598161329b565b9050919050565b60006020820190508181036000830152613779816132be565b9050919050565b60006020820190508181036000830152613799816132e1565b9050919050565b600060208201905081810360008301526137b981613304565b9050919050565b600060208201905081810360008301526137d981613327565b9050919050565b600060208201905081810360008301526137f98161334a565b9050919050565b600060208201905081810360008301526138198161336d565b9050919050565b6000602082019050818103600083015261383981613390565b9050919050565b60006020820190508181036000830152613859816133b3565b9050919050565b600060208201905081810360008301526138798161341c565b9050919050565b6000602082019050613895600083018461343f565b92915050565b60006138a56138b6565b90506138b18282613b96565b919050565b6000604051905090565b600067ffffffffffffffff8211156138db576138da613d2c565b5b6138e482613d6f565b9050602081019050919050565b600067ffffffffffffffff82111561390c5761390b613d2c565b5b61391582613d6f565b9050602081019050919050565b600081519050919050565b600081519050919050565b600082825260208201905092915050565b600082825260208201905092915050565b600081905092915050565b600061397082613aee565b915061397b83613aee565b9250827fffffffffffffffffffffffffffffffffffffffffffffffffffffffffffffffff038211156139b0576139af613c41565b5b828201905092915050565b60006139c682613aee565b91506139d183613aee565b9250826139e1576139e0613c70565b5b828204905092915050565b60006139f782613aee565b9150613a0283613aee565b9250817fffffffffffffffffffffffffffffffffffffffffffffffffffffffffffffffff0483118215151615613a3b57613a3a613c41565b5b828202905092915050565b6000613a5182613aee565b9150613a5c83613aee565b925082821015613a6f57613a6e613c41565b5b828203905092915050565b6000613a8582613ace565b9050919050565b60008115159050919050565b6000819050919050565b60007fffffffff0000000000000000000000000000000000000000000000000000000082169050919050565b600073ffffffffffffffffffffffffffffffffffffffff82169050919050565b6000819050919050565b82818337600083830152505050565b60005b83811015613b25578082015181840152602081019050613b0a565b83811115613b34576000848401525b50505050565b6000613b4582613aee565b91506000821415613b5957613b58613c41565b5b600182039050919050565b60006002820490506001821680613b7c57607f821691505b60208210811415613b9057613b8f613c9f565b5b50919050565b613b9f82613d6f565b810181811067ffffffffffffffff82111715613bbe57613bbd613d2c565b5b80604052505050565b6000613bd282613aee565b91507fffffffffffffffffffffffffffffffffffffffffffffffffffffffffffffffff821415613c0557613c04613c41565b5b600182019050919050565b6000613c1b82613aee565b9150613c2683613aee565b925082613c3657613c35613c70565b5b828206905092915050565b7f4e487b7100000000000000000000000000000000000000000000000000000000600052601160045260246000fd5b7f4e487b7100000000000000000000000000000000000000000000000000000000600052601260045260246000fd5b7f4e487b7100000000000000000000000000000000000000000000000000000000600052602260045260246000fd5b7f4e487b7100000000000000000000000000000000000000000000000000000000600052603160045260246000fd5b7f4e487b7100000000000000000000000000000000000000000000000000000000600052603260045260246000fd5b7f4e487b7100000000000000000000000000000000000000000000000000000000600052604160045260246000fd5b600080fd5b600080fd5b600080fd5b600080fd5b6000601f19601f8301169050919050565b7f537472696e67733a20686578206c656e67746820696e73756666696369656e74600082015250565b7f455243373231456e756d657261626c653a206f776e657220696e646578206f7560008201527f74206f6620626f756e6473000000000000000000000000000000000000000000602082015250565b7f436f756e7465723a2064656372656d656e74206f766572666c6f770000000000600082015250565b7f4552433732313a207472616e7366657220746f206e6f6e20455243373231526560008201527f63656976657220696d706c656d656e7465720000000000000000000000000000602082015250565b7f4552433732313a20746f6b656e20616c7265616479206d696e74656400000000600082015250565b7f4552433732313a207472616e7366657220746f20746865207a65726f2061646460008201527f7265737300000000000000000000000000000000000000000000000000000000602082015250565b7f4552433732313a20617070726f766520746f2063616c6c657200000000000000600082015250565b7f4861736820616c726561647920696e2075736500000000000000000000000000600082015250565b7f4552433732313a206f70657261746f7220717565727920666f72206e6f6e657860008201527f697374656e7420746f6b656e0000000000000000000000000000000000000000602082015250565b7f4552433732313a20617070726f76652063616c6c6572206973206e6f74206f7760008201527f6e6572206e6f7220617070726f76656420666f7220616c6c0000000000000000602082015250565b7f4552433732313a2062616c616e636520717565727920666f7220746865207a6560008201527f726f206164647265737300000000000000000000000000000000000000000000602082015250565b7f4552433732313a206f776e657220717565727920666f72206e6f6e657869737460008201527f656e7420746f6b656e0000000000000000000000000000000000000000000000602082015250565b7f45524337323155524953746f726167653a2055524920736574206f66206e6f6e60008201527f6578697374656e7420746f6b656e000000000000000000000000000000000000602082015250565b7f4552433732313a206d696e7420746f20746865207a65726f2061646472657373600082015250565b7f45524337323155524953746f726167653a2055524920717565727920666f722060008201527f6e6f6e6578697374656e7420746f6b656e000000000000000000000000000000602082015250565b7f4552433732313a20617070726f76656420717565727920666f72206e6f6e657860008201527f697374656e7420746f6b656e0000000000000000000000000000000000000000602082015250565b7f4552433732313a207472616e73666572206f6620746f6b656e2074686174206960008201527f73206e6f74206f776e0000000000000000000000000000000000000000000000602082015250565b7f4552433732314d657461646174613a2055524920717565727920666f72206e6f60008201527f6e6578697374656e7420746f6b656e0000000000000000000000000000000000602082015250565b7f4552433732313a20617070726f76616c20746f2063757272656e74206f776e6560008201527f7200000000000000000000000000000000000000000000000000000000000000602082015250565b7f4552433732313a207472616e736665722063616c6c6572206973206e6f74206f60008201527f776e6572206e6f7220617070726f766564000000000000000000000000000000602082015250565b7f455243373231456e756d657261626c653a20676c6f62616c20696e646578206f60008201527f7574206f6620626f756e64730000000000000000000000000000000000000000602082015250565b7f416363657373436f6e74726f6c3a206163636f756e7420000000000000000000600082015250565b7f206973206d697373696e6720726f6c6520000000000000000000000000000000600082015250565b7f416363657373436f6e74726f6c3a2063616e206f6e6c792072656e6f756e636560008201527f20726f6c657320666f722073656c660000000000000000000000000000000000602082015250565b6143c181613a7a565b81146143cc57600080fd5b50565b6143d881613a8c565b81146143e357600080fd5b50565b6143ef81613a98565b81146143fa57600080fd5b50565b61440681613aa2565b811461441157600080fd5b50565b61441d81613aee565b811461442857600080fd5b5056fea2646970667358221220cf75ec2c66cd71f9591e7e1d3ee8f8b3d67a77235539a26e956cef29a10a3ab264736f6c63430008070033",
  "linkReferences": {},
  "deployedLinkReferences": {}
}