{
  "_format": "hh-sol-artifact-1",
  "contractName": "CalculateCost",
  "sourceName": "contracts/curve/CalculateCost.sol",
  "abi": [
    {
      "inputs": [
        {
          "internalType": "int256[]",
          "name": "curve",
          "type": "int256[]"
        },
        {
          "internalType": "uint256",
          "name": "start",
          "type": "uint256"
        },
        {
          "internalType": "uint256",
          "name": "nth",
          "type": "uint256"
        },
        {
          "internalType": "uint256",
          "name": "initCost",
          "type": "uint256"
        }
      ],
      "name": "costOfN",
      "outputs": [
        {
          "internalType": "uint256",
          "name": "",
          "type": "uint256"
        }
      ],
      "stateMutability": "pure",
      "type": "function"
    }
  ],
  "bytecode": "0x608060405234801561001057600080fd5b506110af806100206000396000f3fe608060405234801561001057600080fd5b506004361061002b5760003560e01c806397260beb14610030575b600080fd5b61004a60048036038101906100459190610786565b610060565b6040516100579190610924565b60405180910390f35b60008061006e8686866100d1565b905060008112156100b4576040517f08c379a00000000000000000000000000000000000000000000000000000000081526004016100ab90610904565b60405180910390fd5b600083826100c29190610d44565b90508092505050949350505050565b60008060009050600085600187516100e99190610d9e565b815181106100fa576100f9610ecb565b5b6020026020010151848661010e9190610a35565b111561014f576040517f08c379a0000000000000000000000000000000000000000000000000000000008152600401610146906108a4565b60405180910390fd5b5b855182101561026c57600086838151811061016e5761016d610ecb565b5b60200260200101519050600087600183866101899190610a35565b6101939190610a35565b815181106101a4576101a3610ecb565b5b602002602001015190506000600283866101be9190610a35565b6101c89190610a35565b9050818811156101dd57809450505050610150565b61020d89868a858b8d6101f09190610a35565b116101fb578a610208565b8b866102079190610d9e565b5b610276565b8461021891906109a1565b93508187896102279190610a35565b1161023957839550505050505061026f565b600188836102479190610d9e565b6102519190610a35565b8761025c9190610d9e565b9650819750809450505050610150565b50505b9392505050565b60008060009050600086868151811061029257610291610ecb565b5b6020026020010151905060006001876102ab9190610a35565b9050600082826102bb9190610a35565b905060008290505b8181101561035b576102ec6001896102db9190610d9e565b84836102e79190610d9e565b6103af565b61030c888a6102fb9190610a35565b85846103079190610d9e565b6103af565b6103169190610d9e565b8a828151811061032957610328610ecb565b5b602002602001015161033b9190610c2d565b8561034691906109a1565b9450808061035390610e24565b9150506102c3565b5060008412156103a0576040517f08c379a0000000000000000000000000000000000000000000000000000000008152600401610397906108c4565b60405180910390fd5b83945050505050949350505050565b6000600682111580156103c3575060008210155b610402576040517f08c379a00000000000000000000000000000000000000000000000000000000081526004016103f9906108e4565b60405180910390fd5b6000821415610413578290506106b8565b600182141561044757600260018461042b9190610a35565b846104369190610d44565b6104409190610a8b565b90506106b8565b600282141561049e57600660018460026104619190610d44565b61046b9190610a35565b6001856104789190610a35565b856104839190610d44565b61048d9190610d44565b6104979190610a8b565b90506106b8565b60038214156104dd576002806001856104b79190610a35565b856104c29190610d44565b6104cc9190610a8b565b6104d69190610b0f565b90506106b8565b600482141561057957601e60018460036104f79190610d44565b858660036105059190610d44565b61050f9190610d44565b6105199190610a35565b6105239190610d9e565b60018560026105329190610d44565b61053c9190610a35565b6001866105499190610a35565b866105549190610d44565b61055e9190610d44565b6105689190610d44565b6105729190610a8b565b90506106b8565b60058214156105f35760018360026105919190610d44565b60028561059e9190610b0f565b60026105aa9190610d44565b6105b49190610a35565b6105be9190610d9e565b60026001856105cd9190610a35565b856105d89190610d44565b6105e29190610b0f565b6105ec9190610d44565b90506106b8565b60068214156106b357602a600184600361060d9190610d44565b60038661061a9190610b0f565b60066106269190610d44565b6004876106339190610b0f565b600361063f9190610d44565b6106499190610a35565b6106539190610d9e565b61065d9190610a35565b600185600261066c9190610d44565b6106769190610a35565b6001866106839190610a35565b8661068e9190610d44565b6106989190610d44565b6106a29190610d44565b6106ac9190610a8b565b90506106b8565b600090505b92915050565b60006106d16106cc84610964565b61093f565b905080838252602082019050828560208602820111156106f4576106f3610f2e565b5b60005b85811015610724578161070a888261075c565b8452602084019350602083019250506001810190506106f7565b5050509392505050565b600082601f83011261074357610742610f29565b5b81356107538482602086016106be565b91505092915050565b60008135905061076b8161104b565b92915050565b60008135905061078081611062565b92915050565b600080600080608085870312156107a05761079f610f38565b5b600085013567ffffffffffffffff8111156107be576107bd610f33565b5b6107ca8782880161072e565b94505060206107db87828801610771565b93505060406107ec87828801610771565b92505060606107fd87828801610771565b91505092959194509250565b6000610816602283610990565b915061082182610f5b565b604082019050919050565b6000610839602583610990565b915061084482610faa565b604082019050919050565b600061085c601e83610990565b915061086782610ff9565b602082019050919050565b600061087f601e83610990565b915061088a82611022565b602082019050919050565b61089e81610ddc565b82525050565b600060208201905081810360008301526108bd81610809565b9050919050565b600060208201905081810360008301526108dd8161082c565b9050919050565b600060208201905081810360008301526108fd8161084f565b9050919050565b6000602082019050818103600083015261091d81610872565b9050919050565b60006020820190506109396000830184610895565b92915050565b600061094961095a565b90506109558282610df3565b919050565b6000604051905090565b600067ffffffffffffffff82111561097f5761097e610efa565b5b602082029050602081019050919050565b600082825260208201905092915050565b60006109ac82610dd2565b91506109b783610dd2565b9250817f7fffffffffffffffffffffffffffffffffffffffffffffffffffffffffffffff038313600083121516156109f2576109f1610e6d565b5b817f8000000000000000000000000000000000000000000000000000000000000000038312600083121615610a2a57610a29610e6d565b5b828201905092915050565b6000610a4082610ddc565b9150610a4b83610ddc565b9250827fffffffffffffffffffffffffffffffffffffffffffffffffffffffffffffffff03821115610a8057610a7f610e6d565b5b828201905092915050565b6000610a9682610ddc565b9150610aa183610ddc565b925082610ab157610ab0610e9c565b5b828204905092915050565b6000808291508390505b6001851115610b0657808604811115610ae257610ae1610e6d565b5b6001851615610af15780820291505b8081029050610aff85610f4e565b9450610ac6565b94509492505050565b6000610b1a82610ddc565b9150610b2583610de6565b9250610b527fffffffffffffffffffffffffffffffffffffffffffffffffffffffffffffffff8484610b5a565b905092915050565b600082610b6a5760019050610c26565b81610b785760009050610c26565b8160018114610b8e5760028114610b9857610bc7565b6001915050610c26565b60ff841115610baa57610ba9610e6d565b5b8360020a915084821115610bc157610bc0610e6d565b5b50610c26565b5060208310610133831016604e8410600b8410161715610bfc5782820a905083811115610bf757610bf6610e6d565b5b610c26565b610c098484846001610abc565b92509050818404811115610c2057610c1f610e6d565b5b81810290505b9392505050565b6000610c3882610dd2565b9150610c4383610dd2565b9250827f7fffffffffffffffffffffffffffffffffffffffffffffffffffffffffffffff0482116000841360008413161615610c8257610c81610e6d565b5b817f80000000000000000000000000000000000000000000000000000000000000000583126000841260008413161615610cbf57610cbe610e6d565b5b827f80000000000000000000000000000000000000000000000000000000000000000582126000841360008412161615610cfc57610cfb610e6d565b5b827f7fffffffffffffffffffffffffffffffffffffffffffffffffffffffffffffff0582126000841260008412161615610d3957610d38610e6d565b5b828202905092915050565b6000610d4f82610ddc565b9150610d5a83610ddc565b9250817fffffffffffffffffffffffffffffffffffffffffffffffffffffffffffffffff0483118215151615610d9357610d92610e6d565b5b828202905092915050565b6000610da982610ddc565b9150610db483610ddc565b925082821015610dc757610dc6610e6d565b5b828203905092915050565b6000819050919050565b6000819050919050565b600060ff82169050919050565b610dfc82610f3d565b810181811067ffffffffffffffff82111715610e1b57610e1a610efa565b5b80604052505050565b6000610e2f82610ddc565b91507fffffffffffffffffffffffffffffffffffffffffffffffffffffffffffffffff821415610e6257610e61610e6d565b5b600182019050919050565b7f4e487b7100000000000000000000000000000000000000000000000000000000600052601160045260246000fd5b7f4e487b7100000000000000000000000000000000000000000000000000000000600052601260045260246000fd5b7f4e487b7100000000000000000000000000000000000000000000000000000000600052603260045260246000fd5b7f4e487b7100000000000000000000000000000000000000000000000000000000600052604160045260246000fd5b600080fd5b600080fd5b600080fd5b600080fd5b6000601f19601f8301169050919050565b60008160011c9050919050565b7f4572726f723a2046756e6374696f6e206e6f7420696e206375727665206c696d60008201527f6974000000000000000000000000000000000000000000000000000000000000602082015250565b7f4572726f723a20436f7374206d7573742062652067726561746572207468616e60008201527f207a65726f000000000000000000000000000000000000000000000000000000602082015250565b7f4572726f723a20496e76616c696420506965636577697365204c6f6769630000600082015250565b7f4572726f723a20436f73742063616e6e6f74206265206e656761746976650000600082015250565b61105481610dd2565b811461105f57600080fd5b50565b61106b81610ddc565b811461107657600080fd5b5056fea2646970667358221220826b79fcec975ca36debe654c7ed41aae1f19bb3dc0c51cbb078b1224bced3f164736f6c63430008070033",
  "linkReferences": {},
  "deployedLinkReferences": {}
}