{
  "_format": "hh-sol-artifact-1",
  "contractName": "CafecitoSwap",
  "sourceName": "contracts/CafecitoSwap.sol",
  "abi": [
    {
      "inputs": [
        {
          "internalType": "contract CafecitoCurve",
          "name": "_cafecitoCurve",
          "type": "address"
        },
        {
          "internalType": "contract CafecitoToken",
          "name": "_cafecitoToken",
          "type": "address"
        }
      ],
      "stateMutability": "nonpayable",
      "type": "constructor"
    },
    {
      "inputs": [
        {
          "internalType": "uint256",
          "name": "tokenId",
          "type": "uint256"
        }
      ],
      "name": "burn",
      "outputs": [],
      "stateMutability": "nonpayable",
      "type": "function"
    },
    {
      "inputs": [],
      "name": "cafecitoCurve",
      "outputs": [
        {
          "internalType": "contract CafecitoCurve",
          "name": "",
          "type": "address"
        }
      ],
      "stateMutability": "view",
      "type": "function"
    },
    {
      "inputs": [],
      "name": "cafecitoToken",
      "outputs": [
        {
          "internalType": "contract CafecitoToken",
          "name": "",
          "type": "address"
        }
      ],
      "stateMutability": "view",
      "type": "function"
    },
    {
      "inputs": [],
      "name": "liquidity",
      "outputs": [
        {
          "internalType": "uint256",
          "name": "",
          "type": "uint256"
        }
      ],
      "stateMutability": "view",
      "type": "function"
    },
    {
      "inputs": [
        {
          "internalType": "address",
          "name": "user",
          "type": "address"
        },
        {
          "internalType": "string",
          "name": "_hash",
          "type": "string"
        },
        {
          "internalType": "string",
          "name": "metadata",
          "type": "string"
        }
      ],
      "name": "mint",
      "outputs": [],
      "stateMutability": "payable",
      "type": "function"
    },
    {
      "inputs": [],
      "name": "treasuryFunds",
      "outputs": [
        {
          "internalType": "uint256",
          "name": "",
          "type": "uint256"
        }
      ],
      "stateMutability": "view",
      "type": "function"
    }
  ],
  "bytecode": "0x60806040523480156200001157600080fd5b5060405162001150380380620011508339818101604052810190620000379190620000ee565b816000806101000a81548173ffffffffffffffffffffffffffffffffffffffff021916908373ffffffffffffffffffffffffffffffffffffffff16021790555080600160006101000a81548173ffffffffffffffffffffffffffffffffffffffff021916908373ffffffffffffffffffffffffffffffffffffffff1602179055505050620001ca565b600081519050620000d18162000196565b92915050565b600081519050620000e881620001b0565b92915050565b6000806040838503121562000108576200010762000191565b5b60006200011885828601620000c0565b92505060206200012b85828601620000d7565b9150509250929050565b6000620001428262000171565b9050919050565b6000620001568262000135565b9050919050565b60006200016a8262000135565b9050919050565b600073ffffffffffffffffffffffffffffffffffffffff82169050919050565b600080fd5b620001a18162000149565b8114620001ad57600080fd5b50565b620001bb816200015d565b8114620001c757600080fd5b50565b610f7680620001da6000396000f3fe6080604052600436106100555760003560e01c80630704afb01461005a5780631a6865021461008557806342966c68146100b057806399071190146100d95780639c01a401146100f5578063b239ed1c14610120575b600080fd5b34801561006657600080fd5b5061006f61014b565b60405161007c9190610af1565b60405180910390f35b34801561009157600080fd5b5061009a61016f565b6040516100a79190610b67565b60405180910390f35b3480156100bc57600080fd5b506100d760048036038101906100d2919061095f565b610175565b005b6100f360048036038101906100ee91906108d4565b61051c565b005b34801561010157600080fd5b5061010a6107b7565b6040516101179190610b67565b60405180910390f35b34801561012c57600080fd5b506101356107bd565b6040516101429190610b0c565b60405180910390f35b60008054906101000a900473ffffffffffffffffffffffffffffffffffffffff1681565b60035481565b3373ffffffffffffffffffffffffffffffffffffffff16600160009054906101000a900473ffffffffffffffffffffffffffffffffffffffff1673ffffffffffffffffffffffffffffffffffffffff16636352211e836040518263ffffffff1660e01b81526004016101e79190610b67565b60206040518083038186803b1580156101ff57600080fd5b505afa158015610213573d6000803e3d6000fd5b505050506040513d601f19601f8201168201806040525081019061023791906108a7565b73ffffffffffffffffffffffffffffffffffffffff161461028d576040517f08c379a000000000000000000000000000000000000000000000000000000000815260040161028490610b27565b60405180910390fd5b6000600160009054906101000a900473ffffffffffffffffffffffffffffffffffffffff1673ffffffffffffffffffffffffffffffffffffffff166378a895676040518163ffffffff1660e01b815260040160206040518083038186803b1580156102f757600080fd5b505afa15801561030b573d6000803e3d6000fd5b505050506040513d601f19601f8201168201806040525081019061032f919061098c565b905060008060009054906101000a900473ffffffffffffffffffffffffffffffffffffffff1673ffffffffffffffffffffffffffffffffffffffff1663e57b9e95836040518263ffffffff1660e01b815260040161038d9190610b67565b60206040518083038186803b1580156103a557600080fd5b505afa1580156103b9573d6000803e3d6000fd5b505050506040513d601f19601f820116820180604052508101906103dd919061098c565b905060646055826103ee9190610c86565b6103f89190610c55565b9050600160009054906101000a900473ffffffffffffffffffffffffffffffffffffffff1673ffffffffffffffffffffffffffffffffffffffff16632448baac846040518263ffffffff1660e01b81526004016104559190610b67565b600060405180830381600087803b15801561046f57600080fd5b505af1158015610483573d6000803e3d6000fd5b5050505060003373ffffffffffffffffffffffffffffffffffffffff16826040516104ad90610a97565b60006040518083038185875af1925050503d80600081146104ea576040519150601f19603f3d011682016040523d82523d6000602084013e6104ef565b606091505b50509050806104fd57600080fd5b816003600082825461050f9190610ce0565b9250508190555050505050565b6000600160009054906101000a900473ffffffffffffffffffffffffffffffffffffffff1673ffffffffffffffffffffffffffffffffffffffff166378a895676040518163ffffffff1660e01b815260040160206040518083038186803b15801561058657600080fd5b505afa15801561059a573d6000803e3d6000fd5b505050506040513d601f19601f820116820180604052508101906105be919061098c565b905060008060009054906101000a900473ffffffffffffffffffffffffffffffffffffffff1673ffffffffffffffffffffffffffffffffffffffff1663e57b9e9560018461060c9190610bff565b6040518263ffffffff1660e01b81526004016106289190610b67565b60206040518083038186803b15801561064057600080fd5b505afa158015610654573d6000803e3d6000fd5b505050506040513d601f19601f82011682018060405250810190610678919061098c565b9050803410156106bd576040517f08c379a00000000000000000000000000000000000000000000000000000000081526004016106b490610b47565b60405180910390fd5b600160009054906101000a900473ffffffffffffffffffffffffffffffffffffffff1673ffffffffffffffffffffffffffffffffffffffff1663d5e81d0c8686866040518463ffffffff1660e01b815260040161071c93929190610aac565b600060405180830381600087803b15801561073657600080fd5b505af115801561074a573d6000803e3d6000fd5b50505050606460558261075d9190610c86565b6107679190610c55565b600360008282546107789190610bff565b925050819055506064600f8261078e9190610c86565b6107989190610c55565b600260008282546107a99190610bff565b925050819055505050505050565b60025481565b600160009054906101000a900473ffffffffffffffffffffffffffffffffffffffff1681565b60006107f66107f184610ba7565b610b82565b90508281526020810184848401111561081257610811610e9d565b5b61081d848285610d98565b509392505050565b60008135905061083481610f12565b92915050565b60008151905061084981610f12565b92915050565b600082601f83011261086457610863610e98565b5b81356108748482602086016107e3565b91505092915050565b60008135905061088c81610f29565b92915050565b6000815190506108a181610f29565b92915050565b6000602082840312156108bd576108bc610ea7565b5b60006108cb8482850161083a565b91505092915050565b6000806000606084860312156108ed576108ec610ea7565b5b60006108fb86828701610825565b935050602084013567ffffffffffffffff81111561091c5761091b610ea2565b5b6109288682870161084f565b925050604084013567ffffffffffffffff81111561094957610948610ea2565b5b6109558682870161084f565b9150509250925092565b60006020828403121561097557610974610ea7565b5b60006109838482850161087d565b91505092915050565b6000602082840312156109a2576109a1610ea7565b5b60006109b084828501610892565b91505092915050565b6109c281610d14565b82525050565b6109d181610d50565b82525050565b6109e081610d62565b82525050565b60006109f182610bd8565b6109fb8185610bee565b9350610a0b818560208601610da7565b610a1481610eac565b840191505092915050565b6000610a2c601783610bee565b9150610a3782610ebd565b602082019050919050565b6000610a4f600083610be3565b9150610a5a82610ee6565b600082019050919050565b6000610a72601083610bee565b9150610a7d82610ee9565b602082019050919050565b610a9181610d46565b82525050565b6000610aa282610a42565b9150819050919050565b6000606082019050610ac160008301866109b9565b8181036020830152610ad381856109e6565b90508181036040830152610ae781846109e6565b9050949350505050565b6000602082019050610b0660008301846109c8565b92915050565b6000602082019050610b2160008301846109d7565b92915050565b60006020820190508181036000830152610b4081610a1f565b9050919050565b60006020820190508181036000830152610b6081610a65565b9050919050565b6000602082019050610b7c6000830184610a88565b92915050565b6000610b8c610b9d565b9050610b988282610dda565b919050565b6000604051905090565b600067ffffffffffffffff821115610bc257610bc1610e69565b5b610bcb82610eac565b9050602081019050919050565b600081519050919050565b600081905092915050565b600082825260208201905092915050565b6000610c0a82610d46565b9150610c1583610d46565b9250827fffffffffffffffffffffffffffffffffffffffffffffffffffffffffffffffff03821115610c4a57610c49610e0b565b5b828201905092915050565b6000610c6082610d46565b9150610c6b83610d46565b925082610c7b57610c7a610e3a565b5b828204905092915050565b6000610c9182610d46565b9150610c9c83610d46565b9250817fffffffffffffffffffffffffffffffffffffffffffffffffffffffffffffffff0483118215151615610cd557610cd4610e0b565b5b828202905092915050565b6000610ceb82610d46565b9150610cf683610d46565b925082821015610d0957610d08610e0b565b5b828203905092915050565b6000610d1f82610d26565b9050919050565b600073ffffffffffffffffffffffffffffffffffffffff82169050919050565b6000819050919050565b6000610d5b82610d74565b9050919050565b6000610d6d82610d74565b9050919050565b6000610d7f82610d86565b9050919050565b6000610d9182610d26565b9050919050565b82818337600083830152505050565b60005b83811015610dc5578082015181840152602081019050610daa565b83811115610dd4576000848401525b50505050565b610de382610eac565b810181811067ffffffffffffffff82111715610e0257610e01610e69565b5b80604052505050565b7f4e487b7100000000000000000000000000000000000000000000000000000000600052601160045260246000fd5b7f4e487b7100000000000000000000000000000000000000000000000000000000600052601260045260246000fd5b7f4e487b7100000000000000000000000000000000000000000000000000000000600052604160045260246000fd5b600080fd5b600080fd5b600080fd5b600080fd5b6000601f19601f8301169050919050565b7f5573657220646f6573206e6f74206f776e20746f6b656e000000000000000000600082015250565b50565b7f4e6f7420656e6f75676820457468657200000000000000000000000000000000600082015250565b610f1b81610d14565b8114610f2657600080fd5b50565b610f3281610d46565b8114610f3d57600080fd5b5056fea264697066735822122029bd68f94d34a72d07ffb5478b8c10af0180248d71826b2d982b60b9f5e0f1ca64736f6c63430008070033",
  "linkReferences": {},
  "deployedLinkReferences": {}
}