{
  "_format": "hh-sol-artifact-1",
  "contractName": "CafecitoCurve",
  "sourceName": "contracts/curve/CafecitoCurve.sol",
  "abi": [
    {
      "inputs": [
        {
          "internalType": "uint256",
          "name": "_initCost",
          "type": "uint256"
        },
        {
          "internalType": "int256[]",
          "name": "_rftCurve",
          "type": "int256[]"
        }
      ],
      "stateMutability": "nonpayable",
      "type": "constructor"
    },
    {
      "inputs": [
        {
          "internalType": "int256[]",
          "name": "curve",
          "type": "int256[]"
        },
        {
          "internalType": "uint256",
          "name": "start",
          "type": "uint256"
        },
        {
          "internalType": "uint256",
          "name": "nth",
          "type": "uint256"
        },
        {
          "internalType": "uint256",
          "name": "initCost",
          "type": "uint256"
        }
      ],
      "name": "costOfN",
      "outputs": [
        {
          "internalType": "uint256",
          "name": "",
          "type": "uint256"
        }
      ],
      "stateMutability": "pure",
      "type": "function"
    },
    {
      "inputs": [
        {
          "internalType": "uint256",
          "name": "start",
          "type": "uint256"
        },
        {
          "internalType": "uint256",
          "name": "amount",
          "type": "uint256"
        }
      ],
      "name": "getCostAmount",
      "outputs": [
        {
          "internalType": "uint256",
          "name": "",
          "type": "uint256"
        }
      ],
      "stateMutability": "view",
      "type": "function"
    },
    {
      "inputs": [
        {
          "internalType": "uint256",
          "name": "start",
          "type": "uint256"
        }
      ],
      "name": "getCurrentCost",
      "outputs": [
        {
          "internalType": "uint256",
          "name": "",
          "type": "uint256"
        }
      ],
      "stateMutability": "view",
      "type": "function"
    },
    {
      "inputs": [],
      "name": "getCurve",
      "outputs": [
        {
          "internalType": "int256[]",
          "name": "",
          "type": "int256[]"
        }
      ],
      "stateMutability": "view",
      "type": "function"
    },
    {
      "inputs": [],
      "name": "initCost",
      "outputs": [
        {
          "internalType": "uint256",
          "name": "",
          "type": "uint256"
        }
      ],
      "stateMutability": "view",
      "type": "function"
    },
    {
      "inputs": [
        {
          "internalType": "uint256",
          "name": "",
          "type": "uint256"
        }
      ],
      "name": "rftCurve",
      "outputs": [
        {
          "internalType": "int256",
          "name": "",
          "type": "int256"
        }
      ],
      "stateMutability": "view",
      "type": "function"
    }
  ],
  "bytecode": "0x60806040523480156200001157600080fd5b506040516200177e3803806200177e8339818101604052810190620000379190620001ac565b816000819055508060019080519060200190620000569291906200005f565b5050506200033c565b8280548282559060005260206000209081019282156200009e579160200282015b828111156200009d57825182559160200191906001019062000080565b5b509050620000ad9190620000b1565b5090565b5b80821115620000cc576000816000905550600101620000b2565b5090565b6000620000e7620000e1846200023b565b62000212565b905080838252602082019050828560208602820111156200010d576200010c620002e8565b5b60005b858110156200014157816200012688826200017e565b84526020840193506020830192505060018101905062000110565b5050509392505050565b600082601f830112620001635762000162620002e3565b5b815162000175848260208601620000d0565b91505092915050565b6000815190506200018f8162000308565b92915050565b600081519050620001a68162000322565b92915050565b60008060408385031215620001c657620001c5620002f2565b5b6000620001d68582860162000195565b925050602083015167ffffffffffffffff811115620001fa57620001f9620002ed565b5b62000208858286016200014b565b9150509250929050565b60006200021e62000231565b90506200022c82826200027e565b919050565b6000604051905090565b600067ffffffffffffffff821115620002595762000258620002b4565b5b602082029050602081019050919050565b6000819050919050565b6000819050919050565b6200028982620002f7565b810181811067ffffffffffffffff82111715620002ab57620002aa620002b4565b5b80604052505050565b7f4e487b7100000000000000000000000000000000000000000000000000000000600052604160045260246000fd5b600080fd5b600080fd5b600080fd5b600080fd5b6000601f19601f8301169050919050565b62000313816200026a565b81146200031f57600080fd5b50565b6200032d8162000274565b81146200033957600080fd5b50565b611432806200034c6000396000f3fe608060405234801561001057600080fd5b50600436106100625760003560e01c8063052f079a146100675780633e9b93061461008557806397260beb146100b5578063d73e8d42146100e5578063e57b9e9514610103578063f1b6536e14610133575b600080fd5b61006f610163565b60405161007c9190610c6e565b60405180910390f35b61009f600480360381019061009a9190610a15565b610169565b6040516100ac9190610bd3565b60405180910390f35b6100cf60048036038101906100ca9190610992565b61018d565b6040516100dc9190610c6e565b60405180910390f35b6100ed6101fe565b6040516100fa9190610bb1565b60405180910390f35b61011d60048036038101906101189190610a15565b610256565b60405161012a9190610c6e565b60405180910390f35b61014d60048036038101906101489190610a42565b61026a565b60405161015a9190610c6e565b60405180910390f35b60005481565b6001818154811061017957600080fd5b906000526020600020016000915090505481565b60008061019b8686866102dd565b905060008112156101e1576040517f08c379a00000000000000000000000000000000000000000000000000000000081526004016101d890610c4e565b60405180910390fd5b600083826101ef91906110c7565b90508092505050949350505050565b6060600180548060200260200160405190810160405280929190818152602001828054801561024c57602002820191906000526020600020905b815481526020019060010190808311610238575b5050505050905090565b600061026382600061026a565b9050919050565b60008060018054806020026020016040519081016040528092919081815260200182805480156102b957602002820191906000526020600020905b8154815260200190600101908083116102a5575b5050505050905060006102d082868660005461018d565b9050809250505092915050565b60008060009050600085600187516102f59190611121565b815181106103065761030561124e565b5b6020026020010151848661031a9190610db8565b111561035b576040517f08c379a000000000000000000000000000000000000000000000000000000000815260040161035290610bee565b60405180910390fd5b5b855182101561047857600086838151811061037a5761037961124e565b5b60200260200101519050600087600183866103959190610db8565b61039f9190610db8565b815181106103b0576103af61124e565b5b602002602001015190506000600283866103ca9190610db8565b6103d49190610db8565b9050818811156103e95780945050505061035c565b61041989868a858b8d6103fc9190610db8565b11610407578a610414565b8b866104139190611121565b5b610482565b846104249190610d24565b93508187896104339190610db8565b1161044557839550505050505061047b565b600188836104539190611121565b61045d9190610db8565b876104689190611121565b965081975080945050505061035c565b50505b9392505050565b60008060009050600086868151811061049e5761049d61124e565b5b6020026020010151905060006001876104b79190610db8565b9050600082826104c79190610db8565b905060008290505b81811015610567576104f86001896104e79190611121565b84836104f39190611121565b6105bb565b610518888a6105079190610db8565b85846105139190611121565b6105bb565b6105229190611121565b8a82815181106105355761053461124e565b5b60200260200101516105479190610fb0565b856105529190610d24565b9450808061055f906111a7565b9150506104cf565b5060008412156105ac576040517f08c379a00000000000000000000000000000000000000000000000000000000081526004016105a390610c0e565b60405180910390fd5b83945050505050949350505050565b6000600682111580156105cf575060008210155b61060e576040517f08c379a000000000000000000000000000000000000000000000000000000000815260040161060590610c2e565b60405180910390fd5b600082141561061f578290506108c4565b60018214156106535760026001846106379190610db8565b8461064291906110c7565b61064c9190610e0e565b90506108c4565b60028214156106aa576006600184600261066d91906110c7565b6106779190610db8565b6001856106849190610db8565b8561068f91906110c7565b61069991906110c7565b6106a39190610e0e565b90506108c4565b60038214156106e9576002806001856106c39190610db8565b856106ce91906110c7565b6106d89190610e0e565b6106e29190610e92565b90506108c4565b600482141561078557601e600184600361070391906110c7565b8586600361071191906110c7565b61071b91906110c7565b6107259190610db8565b61072f9190611121565b600185600261073e91906110c7565b6107489190610db8565b6001866107559190610db8565b8661076091906110c7565b61076a91906110c7565b61077491906110c7565b61077e9190610e0e565b90506108c4565b60058214156107ff57600183600261079d91906110c7565b6002856107aa9190610e92565b60026107b691906110c7565b6107c09190610db8565b6107ca9190611121565b60026001856107d99190610db8565b856107e491906110c7565b6107ee9190610e92565b6107f891906110c7565b90506108c4565b60068214156108bf57602a600184600361081991906110c7565b6003866108269190610e92565b600661083291906110c7565b60048761083f9190610e92565b600361084b91906110c7565b6108559190610db8565b61085f9190611121565b6108699190610db8565b600185600261087891906110c7565b6108829190610db8565b60018661088f9190610db8565b8661089a91906110c7565b6108a491906110c7565b6108ae91906110c7565b6108b89190610e0e565b90506108c4565b600090505b92915050565b60006108dd6108d884610cae565b610c89565b90508083825260208201905082856020860282011115610900576108ff6112b1565b5b60005b8581101561093057816109168882610968565b845260208401935060208301925050600181019050610903565b5050509392505050565b600082601f83011261094f5761094e6112ac565b5b813561095f8482602086016108ca565b91505092915050565b600081359050610977816113ce565b92915050565b60008135905061098c816113e5565b92915050565b600080600080608085870312156109ac576109ab6112bb565b5b600085013567ffffffffffffffff8111156109ca576109c96112b6565b5b6109d68782880161093a565b94505060206109e78782880161097d565b93505060406109f88782880161097d565b9250506060610a098782880161097d565b91505092959194509250565b600060208284031215610a2b57610a2a6112bb565b5b6000610a398482850161097d565b91505092915050565b60008060408385031215610a5957610a586112bb565b5b6000610a678582860161097d565b9250506020610a788582860161097d565b9150509250929050565b6000610a8e8383610af8565b60208301905092915050565b6000610aa582610cea565b610aaf8185610d02565b9350610aba83610cda565b8060005b83811015610aeb578151610ad28882610a82565b9750610add83610cf5565b925050600181019050610abe565b5085935050505092915050565b610b0181611155565b82525050565b610b1081611155565b82525050565b6000610b23602283610d13565b9150610b2e826112de565b604082019050919050565b6000610b46602583610d13565b9150610b518261132d565b604082019050919050565b6000610b69601e83610d13565b9150610b748261137c565b602082019050919050565b6000610b8c601e83610d13565b9150610b97826113a5565b602082019050919050565b610bab8161115f565b82525050565b60006020820190508181036000830152610bcb8184610a9a565b905092915050565b6000602082019050610be86000830184610b07565b92915050565b60006020820190508181036000830152610c0781610b16565b9050919050565b60006020820190508181036000830152610c2781610b39565b9050919050565b60006020820190508181036000830152610c4781610b5c565b9050919050565b60006020820190508181036000830152610c6781610b7f565b9050919050565b6000602082019050610c836000830184610ba2565b92915050565b6000610c93610ca4565b9050610c9f8282611176565b919050565b6000604051905090565b600067ffffffffffffffff821115610cc957610cc861127d565b5b602082029050602081019050919050565b6000819050602082019050919050565b600081519050919050565b6000602082019050919050565b600082825260208201905092915050565b600082825260208201905092915050565b6000610d2f82611155565b9150610d3a83611155565b9250817f7fffffffffffffffffffffffffffffffffffffffffffffffffffffffffffffff03831360008312151615610d7557610d746111f0565b5b817f8000000000000000000000000000000000000000000000000000000000000000038312600083121615610dad57610dac6111f0565b5b828201905092915050565b6000610dc38261115f565b9150610dce8361115f565b9250827fffffffffffffffffffffffffffffffffffffffffffffffffffffffffffffffff03821115610e0357610e026111f0565b5b828201905092915050565b6000610e198261115f565b9150610e248361115f565b925082610e3457610e3361121f565b5b828204905092915050565b6000808291508390505b6001851115610e8957808604811115610e6557610e646111f0565b5b6001851615610e745780820291505b8081029050610e82856112d1565b9450610e49565b94509492505050565b6000610e9d8261115f565b9150610ea883611169565b9250610ed57fffffffffffffffffffffffffffffffffffffffffffffffffffffffffffffffff8484610edd565b905092915050565b600082610eed5760019050610fa9565b81610efb5760009050610fa9565b8160018114610f115760028114610f1b57610f4a565b6001915050610fa9565b60ff841115610f2d57610f2c6111f0565b5b8360020a915084821115610f4457610f436111f0565b5b50610fa9565b5060208310610133831016604e8410600b8410161715610f7f5782820a905083811115610f7a57610f796111f0565b5b610fa9565b610f8c8484846001610e3f565b92509050818404811115610fa357610fa26111f0565b5b81810290505b9392505050565b6000610fbb82611155565b9150610fc683611155565b9250827f7fffffffffffffffffffffffffffffffffffffffffffffffffffffffffffffff0482116000841360008413161615611005576110046111f0565b5b817f80000000000000000000000000000000000000000000000000000000000000000583126000841260008413161615611042576110416111f0565b5b827f8000000000000000000000000000000000000000000000000000000000000000058212600084136000841216161561107f5761107e6111f0565b5b827f7fffffffffffffffffffffffffffffffffffffffffffffffffffffffffffffff05821260008412600084121616156110bc576110bb6111f0565b5b828202905092915050565b60006110d28261115f565b91506110dd8361115f565b9250817fffffffffffffffffffffffffffffffffffffffffffffffffffffffffffffffff0483118215151615611116576111156111f0565b5b828202905092915050565b600061112c8261115f565b91506111378361115f565b92508282101561114a576111496111f0565b5b828203905092915050565b6000819050919050565b6000819050919050565b600060ff82169050919050565b61117f826112c0565b810181811067ffffffffffffffff8211171561119e5761119d61127d565b5b80604052505050565b60006111b28261115f565b91507fffffffffffffffffffffffffffffffffffffffffffffffffffffffffffffffff8214156111e5576111e46111f0565b5b600182019050919050565b7f4e487b7100000000000000000000000000000000000000000000000000000000600052601160045260246000fd5b7f4e487b7100000000000000000000000000000000000000000000000000000000600052601260045260246000fd5b7f4e487b7100000000000000000000000000000000000000000000000000000000600052603260045260246000fd5b7f4e487b7100000000000000000000000000000000000000000000000000000000600052604160045260246000fd5b600080fd5b600080fd5b600080fd5b600080fd5b6000601f19601f8301169050919050565b60008160011c9050919050565b7f4572726f723a2046756e6374696f6e206e6f7420696e206375727665206c696d60008201527f6974000000000000000000000000000000000000000000000000000000000000602082015250565b7f4572726f723a20436f7374206d7573742062652067726561746572207468616e60008201527f207a65726f000000000000000000000000000000000000000000000000000000602082015250565b7f4572726f723a20496e76616c696420506965636577697365204c6f6769630000600082015250565b7f4572726f723a20436f73742063616e6e6f74206265206e656761746976650000600082015250565b6113d781611155565b81146113e257600080fd5b50565b6113ee8161115f565b81146113f957600080fd5b5056fea2646970667358221220bb64552ca5a7936b138627877f08a34b8c9a5b70ca41aa8eba70dcbb5005efd464736f6c63430008070033",
  "linkReferences": {},
  "deployedLinkReferences": {}
}